:020000040000fa
:080000000002040000000000f2
:020000040000fa
:100400002f8020000eff27000e0188000000000052
:100410000c000700209720000100200011000700b9
:10042000000020000000e000020032000000020096
:1004300000000000dc070200000000000040da00bd
:100440000000fe004440a900000020000000e00081
:100450000300320000002000a00188004440a800f2
:100460000000060091018800800078000000eb0089
:1004700015003700e280400032a0b4009101ba00bc
:10048000e280400032a0b4009102ba00e280400055
:1004900032a0b4000002eb00472bde00f507b200eb
:1004a000602ce10004003a000059eb008301e900f0
:1004b000fdff3e00040037006128e100010032002a
:1004c0000082eb00040007001101ba000200e00006
:1004d000e8ff3a00000006003159ba008301e90044
:1004e0000c0032002159ba008301e90008003200f3
:1004f0000400e00003003a00e280400032a0b400b3
:10050000f5ff370011d9ba008301e900faff3a007c
:100510008100e800e180400032a0b4000000060045
:100520001600200001f0a30004003900f6ff2f00a0
:1005300001b2b9000030b900810042000100a700fb
:100540000603ea0000f0a70060001000d1172500a4
:100550000100e1001b003100814826000100b800c5
:100560004d00de00c308dd008100700081037800cb
:10057000000028000109b80000014100e0814900a5
:100580000308b80050552500000ab800c1aade00d3
:10059000858353000308b80040442400000ab800d3
:1005a000c5aade00858343000308b8000068200068
:1005b000000ab800c7aade00858353000730b900df
:1005c000000006000100280000805000814826003d
:1005d0000100b8004d00de00c308dd00810070009e
:1005e000c01b20000008e10003003100f0ff2f00d5
:1005f0000030b900000006000200200013002000b7
:100600000108b80081037800040028000122b80026
:1006100005015100e08159000708b8005455250034
:100620000122b800c3aade0005014100e0814900b3
:100630000708b80034d822000122b800c7aade009b
:1006400005015100e08159000708b800040d2000a1
:100650000122b800c7aade0005014100e08149007f
:100660000708b800240020000122b800c7aade0055
:1006700005015100e081590003b2b9000230b90010
:10068000810042000000060003f0a200889fbe0027
:100690008a9fbe008c1f78002201070029013300c9
:1006a0006450e1004f0032006420e100520032004b
:1006b00003826c0007003b000905d0000306d00050
:1006c000820f54000c065d00020039000200320067
:1006d00089017800030678008582550004003d00fa
:1006e0000003fd008103fd008502ea008b854200c6
:1006f000840f720002003b0060001000e0801800d0
:100700006011b8000005eb007a28e1000a0039000a
:1007100006007800c75ddd00f707b200878075002e
:100720002d003700828171000a01780061056000a8
:100730008180d1000080d3008502e900f9ff3b00f1
:10074000060440008784480002003b006004140057
:10075000e0841c000988a300070032008a81710030
:1007600082817100610164008904d1000884d30092
:100770008b05e800170037000978a30013003a0042
:100780000b00e000130034008b05e900080444006e
:1007900089844c000a4474000978a3000d003a00d3
:1007a0000b00e000070034008b05e900080444005a
:1007b00089844c0001003a000b0020000978a30056
:1007c000f7ff32000001eb00020037008281710068
:1007d0000a017800980007000cf0a70001f0a000c3
:1007e000e10037006420e10002003a00838f6c00d2
:1007f000e10033000801be000200be00da0037004d
:10080000889fbe008a9fbe008c1f7800c50007002d
:10081000cc00330003866c006450e1002e003200ef
:100820006420e100330032006150e1002f0032000b
:100830006120e1003100320085855500eb07b000f2
:1008400009002000080420000500370008044400c7
:1008500089844c000a0031000603430087834b0063
:100860000001530081815b00f8ff33000203be00ea
:100870000800a0000804440089844c00f6ff3900f9
:10088000c639dd008301730001003200130020002f
:100890008904d1000884d3000998a3000500320020
:1008a0000800a7000300a0008904d1000884d30039
:1008b0008b05e8008904d1000884d3000001eb0017
:1008c0000281d2005c00070001f0a1000cf0a7003b
:1008d00001f0a000a40037006420e100a60032006f
:1008e0000801be000200be00f7ff37006120e100f2
:1008f000a10032006000b800f3ff370000002000c4
:1009000001f82700f0ff37000001be00700007006b
:100910000470a70003f0a1006509b10016003200c1
:100920000d0035006828e10006003500f0ff2f00bb
:10093000f1ff27000300e00013003b000100280046
:100940000000050000004000818048008502e900a9
:10095000fcff3a0008003700f88f420002003c001c
:100960008000eb00000005008100d1000080d30072
:100970008502e800fcff3a000300e00002003b00b3
:1009800060001000e080180000000600889fbe0094
:100990008a9fbe00010578000100e00004003500d8
:1009a00008003c000000e000200032000500370095
:1009b00060001000e080180002003b0001f02c00f5
:1009c0001a0037000004be006011b8006b09200057
:1009d0000982cf00020039000882cf000441b00034
:1009e000694252000e00320008003b008281710013
:1009f000610164008904d1000884d3008b05e800fc
:100a00000442e800f9ff3a000500370008044400fa
:100a100089844c008b05e9000442e900fbff3a00a1
:100a2000050007000af0a70001f0a0004f05be0076
:100a30004f04be00000006008100200061805500c8
:100a40000b003d000b00200061fe2f000100e100c3
:100a50001d00340082817100610164008904d100ad
:100a60000884d3000000e800faff3a00710020007b
:100a700061006400030070000200600009003200a1
:100a800061044400e0844c000988a50005003200a0
:100a90008b05e8006808e10002003a008904d100f3
:100aa0000884d300f20f20000258e10005003d0049
:100ab000c75ddd00f907b200898075000800780085
:100ac000000006000bf827008b00780000000500ee
:100ad000c70ade00f107b200f50fb20008003200cd
:100ae000e1cf4200020032000170a00024000500a6
:100af000810f700001003200040805004400050069
:100b0000810f700002003a00140005008502e90020
:100b10000000400081c04800fcff3b000170a000c5
:100b2000240005000004be00e9ff07000003be002a
:100b30000405be000200be00e5ff0700844f7500fb
:100b4000000006000200be006450e100050036000f
:100b50006420e100020036000968a30001003a00a9
:100b60000800be000160a0004f0678004f05be00df
:100b70004f04be0000000600f0ff2f00f1ff270029
:100b8000f9ff3700889fbe008a9fbe008c1f780047
:100b9000e4ff0700ebff330003866c006450e100c4
:100ba000240032006420e100270032006150e1009f
:100bb000220032006120e100210032008b854200da
:100bc000eb07b1000134b800003ab8000804420055
:100bd00089844a00013ab8000030b800888040009b
:100be00009014a00040033000000400081804800f1
:100bf000020149008b05e900c909dd00830170008d
:100c00000100320013002000c814de004814dd008b
:100c10004709de001200b200c808de000884700038
:100c200085ff070001f0a1000cf0a70001f0a00073
:100c3000cdff37006120e100cfff32000801be0088
:100c40000200be00f7ff37006150e100fcff3a00f0
:100c5000c9ff37000001eb0000003700889fbe008d
:100c60008a9fbe008c9fbe00820578000004be00f3
:100c700097ff07000800be006420e100070039006c
:100c800002003a00f1ff2700f0ff2f000160a000f2
:100c90001202200002408800550037006120e10068
:100ca00003003a000b00a70001f8230050003700b2
:100cb00001f0a1000200210093642400500007000d
:100cc0000800be0004003500b2fd2000930c240093
:100cd0004d0007000004be000005eb000b00a6005d
:100ce0004f0dde0001f0a1000004be0032982f007d
:100cf00023ea2300a3ff07000001eb0003f0230019
:100d00000b00a70003f8230060fe0700fefe0700ab
:100d10000000a7000a00a2001cff07000b00e00073
:100d2000030032000200200003f0230056fe0700fb
:100d300001f0a2000006be0002002000930424007f
:100d400090ff07000801be0050fe0700809fbe0014
:100d50000c00be0022a22a00d3a7230089ff0700af
:100d60004f01be0049fe07000004be0001f0a100d3
:100d70000200200003982300210007000800be00a5
:100d8000190035000001be007eff07000006be000e
:100d9000b2c52900e36223007aff070022222b005c
:100da000f3942b0039fe07000c01be0075ff07000d
:100db000e273280083c0230034fe07000c01be004c
:100dc00070ff070042aa2a00a3e22b002ffe0700b3
:100dd0000c01be006bff07000801be0069ff0700a1
:100de0000801be0029fe07000a00a70001f0a200ca
:100df0004f06be004f05be004f04be0000000600b7
:100e000014002000510037000400200000003700cb
:100e1000889fbe008a9fbe008c1f78004f26dd0091
:100e200040ff070047ff33006120e100430032002c
:100e30006250e10041003e003e0039006420e100c4
:100e40003c003200058255000f003b000402e80020
:100e500038003a00800f5300818f5b00350034006a
:100e60000800be0003f0a10001f0a60003f0a000fe
:100e70000cf0a70005fe07003bff37000603430008
:100e800087834b000c4646000005530081855b00bc
:100e9000020033000a03be000c00a0000402e900b7
:100ea000f6ff3b00850578000602430087824b0071
:100eb00004003a006000b80009f0a70001f0a000ab
:100ec00029ff37000002520081825a000704e00027
:100ed000040033000603430087834b008b05e900c1
:100ee000faff3700090578000604be000203be00c1
:100ef0006011b800d0fe0700e00f5200e08f5a00ea
:100f00000700350002003c000c08a300040032007a
:100f10000601be0003f0a0000cf0a700dbfd0700f7
:100f20000a85680001f0a1000af0a70001f0a00006
:100f30000dff37000800be000bff37001002200035
:100f40000cf0a600004088000bff3700889fbe0011
:100f50008a9fbe00841f7800f2fe07004f007800d1
:100f600011003300f0ff2f00838f6c0006003b0060
:100f7000040565000a00a7000800370009f0a60074
:100f80001000200008003700820f5400838f5c009f
:100f9000030039001000200001003e000000200086
:100fa00009f0a7000000ea004f05be004f04be0094
:080fb0000000e0000000060053
:020000040000fa
:100008006e09000032090000380900003e090000ae
:10001800440900004a0900006e0900006e0900004a
:100028006e0900006e0900006e0900006e090000ec
:100038006e0900006e0900006e0900006e090000dc
:100048006e0900006e0900006e0900006e090000cc
:100058006e0900006e0900006e0900006e090000bc
:100068006e0900006e0900006e0900006e090000ac
:100078006e0900006e0900006e0900006e0900009c
:100088006e0900006e0900006e0900006e0900008c
:100098006e0900006e0900006e0900006e0900007c
:1000a8006e0900006e0900006e0900006e0900006c
:1000b8006e0900006e0900006e0900006e0900005c
:1000c8006e0900006e0900006e0900006e0900004c
:1000d8006e0900006e0900006e0900006e0900003c
:1000e8006e0900006e0900006e0900006e0900002c
:1000f8006e0900006e0900006e0900006e0900001c
:100108006e0900006e0900006e0900006e0900000b
:100118006e0900006e0900006e0900006e090000fb
:100128006e0900006e0900006e0900006e090000eb
:100138006e0900006e0900006e0900006e090000db
:100148006e0900006e0900006e0900006e090000cb
:100158006e0900006e0900006e0900006e090000bb
:100168006e0900006e0900006e0900006e090000ab
:100178006e0900006e0900006e0900006e0900009b
:100188006e0900006e0900006e0900006e0900008b
:100198006e0900006e0900006e0900006e0900007b
:1001a8006e0900006e0900006e0900006e0900006b
:1001b8006e0900006e0900006e0900006e0900005b
:1001c8006e0900006e0900006e0900006e0900004b
:1001d8006e0900006e0900006e0900006e0900003b
:1001e8006e0900006e0900006e0900006e0900002b
:0801f8006e0900006e09000011
:020000040000fa
:100208006e09000050090000560900005c09000052
:1002180062090000680900006e0900006e0900000c
:100228006e0900006e0900006e0900006e090000ea
:100238006e0900006e0900006e0900006e090000da
:100248006e0900006e0900006e0900006e090000ca
:100258006e0900006e0900006e0900006e090000ba
:100268006e0900006e0900006e0900006e090000aa
:100278006e0900006e0900006e0900006e0900009a
:100288006e0900006e0900006e0900006e0900008a
:100298006e0900006e0900006e0900006e0900007a
:1002a8006e0900006e0900006e0900006e0900006a
:1002b8006e0900006e0900006e0900006e0900005a
:1002c8006e0900006e0900006e0900006e0900004a
:1002d8006e0900006e0900006e0900006e0900003a
:1002e8006e0900006e0900006e0900006e0900002a
:1002f8006e0900006e0900006e0900006e0900001a
:100308006e0900006e0900006e0900006e09000009
:100318006e0900006e0900006e0900006e090000f9
:100328006e0900006e0900006e0900006e090000e9
:100338006e0900006e0900006e0900006e090000d9
:100348006e0900006e0900006e0900006e090000c9
:100358006e0900006e0900006e0900006e090000b9
:100368006e0900006e0900006e0900006e090000a9
:100378006e0900006e0900006e0900006e09000099
:100388006e0900006e0900006e0900006e09000089
:100398006e0900006e0900006e0900006e09000079
:1003a8006e0900006e0900006e0900006e09000069
:1003b8006e0900006e0900006e0900006e09000059
:1003c8006e0900006e0900006e0900006e09000049
:1003d8006e0900006e0900006e0900006e09000039
:1003e8006e0900006e0900006e0900006e09000029
:0803f8006e0900006e0900000f
:020000040000fa
:100fb8003000fa00889fbe006000b8004017980013
:100fc800511798006000b800201798003117980052
:100fd8006000b80000179800111798006000b8006a
:100fe800600f9800710f980000002000a1372400be
:100ff800400f9800510f98000000200001fc2300ca
:10100800200f9800310f9800a00f2000100f9800b3
:10101800c05d2000000f9800500020000100200053
:1010280060079800710798006000b80040079800b2
:10103800510798000000eb00300798000e08900058
:10104800cf80de004ffe0700f226210033a82300e0
:10105800cafe07000001be00000020000170240045
:10106800e5fd070010079800210798001e00900072
:10107800ae00900022fe0700000f78001e007800e6
:101088006101b9006e009000fe0090000000410070
:101098008180490060079800710798006e009000f1
:1010a800fe0090001cfd07004007980051079800bb
:1010b8004e009000de009000408cde00cfc4de00c1
:1010c8001e0890006103b9008800780006007800c7
:1010d800000ab80007c0b900050178000001410006
:1010e80009b0b900000141008202780040a8de0082
:1010f800cf80de0040079800510798004e0090000e
:10110800de009000ca8cde004609dd004a04de00dd
:10111800080471001e0890006103b9008800780077
:1011280006007800000ab80007c0b9000501780079
:101138000001410009b0b9000001410082027800b5
:101148004629dd004a20de0000007100caa8de0042
:101158003007980002ed2000930c24002e08900020
:10116800be08900085fe07004e119000de11900029
:1011780082fe070000179800111798000e109000c3
:101188009e109000b1fe07004e099000de09900005
:101198007afe0700600f9800710f98002e109000db
:1011a800be10900061004000e080480020179800c1
:1011b800311798002e109000be109000e00f5000dc
:1011c800e08f5800060035002e109000be109000e9
:1011d800ecfd07006017980071179800170037009a
:1011e8002e109000be109000610160006000b800f1
:1011f8000300200002007000838070002e11900010
:10120800be1190008301d1000281d300020070005a
:1012180083807000dbfd0700601798007117980045
:101228006e119000fe1190006e109000fe1090005c
:1012380014fd070060179800711798006e10900051
:10124800fe10900002002000a34724006afd07005a
:10125800401798005117980088ff37000000fa00df
:101268008020a900ffff37000000fa008060a90075
:10127800ffff37000000fa008040a900ffff370099
:101288000000fa008080a900ffff37000000fa0084
:1012980080a0a900ffff37000000fa008020a90005
:1012a800ffff37000000fa008060a900ffff370049
:1012b8000000fa008040a900ffff37000000fa0094
:1012c8008080a900ffff37000000fa0080a0a90075
:0c12d800ffff37000000fa00ffff3700a6
:020000040000fa
:1012e40000080000020000000000000000000000f0
:020000040000fa
:1012f4000000fa000080fa00000006000000fa0076
:081304000080fa000000060061
:00000001FF
